:020000040020DA
:10000000A84F0020BF632100A9632100B363210032
:10001000B9632100B9632100B96321000000000029
:10002000000000000000000000000000B963210093
:10003000B963210000000000B9632100B963210009
:10004000B9632100B9632100B9632100B9632100BC
:1000500000000000B9632100B9632100B9632100E9
:10006000B963210000000000000000000000000053
:100070000000000000000000B96321000000000043
:100080000000000000000000B9632100B9632100F6
:10009000B9632100B9632100B9632100B96321006C
:1000A000B9632100B9632100B9632100B96321005C
:1000B000B9632100B9632100B9632100B96321004C
:1000C000B9632100B9632100B9632100B96321003C
:1000D000B9632100000000000000000000000000E3
:1000E0000000000000000000000000000000000010
:1000F000B963210000000000B9632100B963210049
:1001000000000000000000000000000000000000EF
:1001100000000000000000000000000000000000DF
:1001200000000000000000000000000000000000CF
:1001300000000000000000000000000000000000BF
:1001400000000000000000000000000000000000AF
:10015000000000000000000000000000000000009F
:10016000000000000000000000000000000000008F
:10017000000000000000000000000000000000007F
:10018000000000000000000000000000000000006F
:10019000000000000000000000000000000000005F
:1001A000000000000000000000000000000000004F
:1001B000000000000000000000000000000000003F
:1001C000000000000000000000000000000000002F
:1001D000000000000000000000000000000000001F
:1001E000000000000000000000000000000000000F
:1001F00000000000000000000000000000000000FF
:1002000000000000000000000000000000000000EE
:1002100000000000000000000000000000000000DE
:1002200000000000000000000000000000000000CE
:1002300000000000000000000000000000000000BE
:1002400000000000000000000000000000000000AE
:10025000000000000000000000000000000000009E
:10026000000000000000000000000000000000008E
:10027000B9632100B9632100B9632100B96321008A
:10028000B9632100B9632100B963210080B500AFD3
:1002900014F067FC12F08AFC00F005F812F098FCEC
:1002A0000023184680BD80B500AF13F0A7FE12F002
:1002B0001BFD0CF01FFD0CF0C9FF0DF0CDFD00F093
:1002C00021F804F0D3FE05F0C9FF03F021F804F093
:1002D00055FA09F0E5FF08F065FA0AF0ABF80AF004
:1002E000F9FF0BF069F80BF0C5F90CF087FA0EF086
:1002F000E8FF002300223621012012F092FD00BF0A
:1003000080BD0000B0B582B002AF4FF4DA720021B8
:1003100032481BF04FF81022002131481BF04AF8F8
:100320002E4B0F2283F882212C4B012283F8A1212E
:100330002A4B002283F8A221284B4FF4A472A3F881
:10034000A621264B0122C3F86021244B254A03F540
:10035000C27413460FCB84E80F000CF01BFD03465C
:10036000002B03D0012002F0C3FC02E0002002F0C9
:10037000BFFC02F019FD1C4B00229A7115F0CEFC57
:100380001A4815F063FC1A4815F06EFC0021012094
:1003900013F046FE03461A46104B83F8A8210F4B74
:1003A00093F8A8410D4BB3F8A6311D4615F012FF86
:1003B0000246104B009301232946204613F0CAFF42
:1003C00002F0BCFE0021002013F02AFE03461A466C
:1003D000024B83F8B02100BFBD46B0BDC04F002026
:1003E000845100201CB52100745100202F082000EA
:1003F000050920005F06200080B584B000AF78605A
:1004000018F089F8264B1A787B681B789A4204D03A
:1004100018F075F84FF0FF333EE00023FB60204BEF
:10042000B3F801309AB27B68B3F801309BB29A42BC
:100430000CD118F064F81A4BB3F803309BB21A468B
:100440007B68B3F803309BB2D31A25E0144BB3F8A2
:1004500001309BB21A467B68B3F801309BB2D31AC5
:10046000012B13D10E4BB3F803309BB2FB607B68BA
:10047000B3F803309BB21A46FB689B1A03F57F431F
:10048000FF33FB60FB680133FB6002E04FF0FF339A
:10049000FB6018F034F8FB6818461037BD4680BD85
:1004A000C04F002080B485B000AF786039607B68B1
:1004B0001A783B681B789A4202D04FF0FF333CE039
:1004C0000023FB817B68B3F801309AB23B68B3F834
:1004D00001309BB29A420BD17B68B3F803309AB2D9
:1004E0003B68B3F803309BB2D31A9BB21BB224E033
:1004F0007B68B3F801309BB21A463B68B3F8013011
:100500009BB2D31A012B13D17B68B3F803309BB293
:10051000FB81FA893B68B3F803309BB2D31A9BB2D4
:10052000013B9BB2FB81FB8901339BB2FB8102E063
:100530004FF6FF73FB81B7F90E3018461437BD46EE
:1005400080BC704780B586B000AF03463960FB8041
:100550000023FB750023BB7500237B7500237B8282
:1005600000233B8207F108030522002118461AF0F8
:1005700021FF02F0E7FA03461A4640F2311303FB6B
:1005800002F3204A82FB03121213DB17D31A7B7586
:10059000FA887B7D92FBF3F33B823B8ADBB23B72B2
:1005A0003B8A1B0A9BB2DBB27B72386801F062FFA8
:1005B0000023FB751EE0FB7D3A6813441B789AB25A
:1005C000FB7D07F118010B4413F8103C9BB2134458
:1005D0009AB2BB7D9BB213447B82FB7D3A68134485
:1005E0007A8AD2B21A707B8A1B0A9BB2BB75FB7DDA
:1005F0000133FB75FB7D042BDDD900BF1837BD46E9
:1006000080BD00BFAD8BDB6880B483B000AF786085
:1006100039607B681B789AB27B6801331B789BB288
:100620001B029BB213449AB23B68A3F803207B6879
:1006300002331B789AB27B6803331B789BB21B0290
:100640009BB213449AB23B68A3F801207B681A79E5
:100650003B681A7000BF0C37BD4680BC704780B540
:1006600084B002AF0346FB7114F007F802461D4B3D
:10067000C3F8AC211B4B93F8A8011A4BD3F8AC215B
:10068000194B009301234FF4A47113F063FE154B33
:100690004FF4A472A3F8A621124B1B7C83F0010334
:1006A000DBB2002B13D00CF075FB0346002B0BD0F4
:1006B000012002F01DFB01F0C1FE05F0CDFB034659
:1006C0001A46084B1A8104E000F0C8F901E000F076
:1006D00039FC064B1B680133044A136000BF08371E
:1006E000BD4680BDC04F00205F0620008451002021
:1006F00080B582B000AF0346FB71454B93F864317F
:10070000023B162B6CD801A252F823F0FB07200005
:10071000E1072000690720006F072000750720000F
:100720007B07200081072000870720008D0720001D
:1007300093072000990720009F072000E107200071
:10074000A5072000AB072000B1072000B707200055
:10075000BD072000C3072000C9072000CF072000E5
:10076000D5072000DB07200000F0F6FD46E000F092
:1007700049FE43E000F058FE40E000F075FE3DE029
:1007800000F0B8FE3AE000F02FFF37E000F05EFF27
:1007900034E000F06DFF31E000F08AFF2EE000F061
:1007A000E9FF2BE001F034F928E001F063F925E0DE
:1007B00001F072F922E001F08FF91FE001F0CAF9AF
:1007C0001CE001F0BBFB19E001F08EFC16E001F02B
:1007D0009DFC13E001F0BAFC10E001F0FDFC0DE01F
:1007E0000B4B93F864319AB2094BDB882021092026
:1007F00012F072FB02F0AAFB00E000BF054B5B6841
:100800000133044A536000BF0837BD4680BD00BFB6
:10081000C04F00208451002080B582B000AF034655
:10082000FB7112F0B7FD00BF0837BD4680BD80B533
:1008300084B000AF7860314BD3F8AC317A68D31A0A
:10084000FB602E4B1B7C83F00103DBB2002B03D03B
:10085000F86800F0AFF948E0284B93F86431073BA3
:10086000102B35D801A252F823F000BFB1082000A8
:10087000D1082000D1082000D1082000B9082000AC
:10088000B9082000D1082000D1082000D10820009C
:10089000D1082000C1082000C1082000D108200094
:1008A000D1082000D1082000D1082000C90820006C
:1008B000F86800F0EBFD18E0F86800F027FF14E09E
:1008C000F86801F00FF910E0F86801F051FC0CE055
:1008D0000A4B93F864319AB2084BDB882121092036
:1008E00012F0BCFA02F032FB00BF054B9B680133EB
:1008F000034A936000BF1037BD4680BDC04F002043
:100900008451002080B584B000AF7860304BD3F8BC
:10091000AC317A68D31AFB602D4B1B7C83F001034A
:10092000DBB2002B03D0F86800F062F947E0284BF7
:1009300093F86431083B102B34D801A252F823F00D
:1009400085092000A5092000A5092000A50920008F
:10095000A50920008D092000A5092000A509200077
:10096000A5092000A5092000A5092000950920005F
:10097000A5092000A5092000A5092000A50920003F
:100980009D092000F86800F0C7FD18E0F86800F045
:1009900003FF14E0F86801F0EFF810E0F86801F0E8
:1009A0002DFC0CE00A4B93F864319AB2084BDB88BB
:1009B0002221092012F052FA02F0C8FA00BF054BBA
:1009C000DB680133034AD36000BF1037BD4680BDEA
:1009D000C04F00208451002080B582B000AF0D4B85
:1009E0001B783B700B4BB3F801309BB2A7F801307A
:1009F000084BB3F803309BB2A7F803303B460522FF
:100A00001946042012F0D2F9012318460837BD46D2
:100A100080BD00BFC04F002080B582B000AF002372
:100A2000FB71074B1B7CFB71FB1D0122194600204B
:100A300012F0BCF9012318460837BD4680BD00BF3F
:100A4000C04F002080B500AF0F220349052012F0EF
:100A5000ADF90123184680BD7451002080B582B0E5
:100A600002AF504B93F86431022B00F0988015F0E0
:100A7000B1FB02464B4BC3F898214A4B012283F845
:100A8000A021484B93F86431012B13D0012002F0D0
:100A900007FA15F049F9434B0F2283F88021414BA7
:100AA00093F88031184615F013F915F0C5F915F0D3
:100AB000D3F933E03C4BD3F807303A4AB2F8A621D9
:100AC0001344394AC2F80730374BD3F80B30354A54
:100AD000B2F8A6211344344AC2F80B30314BB3F8B4
:100AE00003309AB2314BA3FB0213D9090B469B008A
:100AF0000B445B01D31A9BB2002B0BD115F014F9F8
:100B0000284B0F2283F88021264B93F8803118461A
:100B100015F0DEF815F090F915F09EF9214B93F8D9
:100B20006431012B1FD11F4B93F88331002B1AD056
:100B300015F0FAF81B4B93F88231184602F088F949
:100B400003461A46174B83F88021164B93F88031E1
:100B5000184615F0BDF815F06FF915F07DF9114B39
:100B6000002283F883210F4BB3F803309BB201338B
:100B70009AB20C4BA3F803200A4B93F8B001094B2F
:100B8000B3F8A631203B1946064BD3F8AC21084BED
:100B90000093012313F0DEFB12F00AFC00E000BF1B
:100BA000BD4680BDC04F002074510020CDCCCCCCC0
:100BB0001908200080B582B000AF78600B4B93F825
:100BC0006431012B0DD112F0E5FB022002F068F92F
:100BD000064A7B68C2F87831044A7B68C2F87C31E7
:100BE00000E000BF0837BD4680BD00BFC04F0020F9
:100BF000B0B596B002AF7860AD4B93F86431022B7C
:100C000009D0AB4B93F864319AB200231E2109201E
:100C100012F024F948E1032002F042F909200CF017
:100C200069FB0246A24BC3F86C21A14BD3F86C318F
:100C3000002B06D1002300222D21092012F00EF9ED
:100C400032E19B4BD3F86C3109221A70984BD3F8E0
:100C50006C3109225A70964BD3F86C21944BD3F81F
:100C60006C31C9325A60924BD3F86C315868904B52
:100C7000D3F86C3103F108018D4BD3F86C3103F1DB
:100C8000C5048B4BD3F86C31C633894AD2F86C213A
:100C9000C732019200932346822215F0F7F8844B65
:100CA000D3F86C311B7A012B05D9814BD3F86C3109
:100CB0001B7A802B0AD97E4BD3F86C311B7A9BB2FE
:100CC00000223821092012F0C9F8E0E0784BD3F86F
:100CD0006C31022118460DF07CFC754BD3F86C3159
:100CE00093F8C73083F00103DBB2002B40F0C680DD
:100CF0006F4BD3F86C3107F11002114618460EF015
:100D00003FF83B7C83F00103DBB2002B40F0B8805E
:100D1000674BD3F86C31BA7C83F85220644BD3F81C
:100D20006C317A7E83F85320614BD3F86C314133B8
:100D30001A4607F13D031D685C689868D96815601C
:100D400054609060D1601B7C1374594BD3F86C31A4
:100D500007F110021146184602F0CFFA034683F05D
:100D60000103DBB2002B40F08D80514BD3F86C3186
:100D700093F8A930002B19D04D4B1B7C83F0010355
:100D8000DBB2002B00F08380BB7C002B7FD1484B73
:100D9000D3F86C3107F110021146184601F0C6FB7A
:100DA000034683F00103DBB2002B6DD1404BD3F837
:100DB0006C317A7C114618460DF0C7FB0023FB818D
:100DC0003B7C002B21D0FB7D002B1ED0BB7C002B5D
:100DD0001BD104200CF018F8024607F110030B3366
:100DE000114618460DF096FA0346002B0DD0304BF5
:100DF000D3F86C3107F10E021146184600F05AF88C
:100E00000346002B01D0012300E00023002B3DD03E
:100E100014F08AFF15F0DEF90246254BD3F898311D
:100E2000D21A234BD3F89C311344214AC2F89C3187
:100E30001F4BD3F86C31FA89D2B2114618460DF027
:100E400084FB1B4BD3F87C31184601F0A7FE012030
:100E500001F04EFF164BDA8800231C21092011F007
:100E6000E0FF134BD3F86C31184601F07DFF104BB7
:100E70000022C3F86C2102F069F815E000BF06E01B
:100E800000BF04E000BF02E000BF00E000BF084B6D
:100E9000D3F86C3118460CF08DFA054B0022C3F8DC
:100EA0006C21012001F0FCFF5037BD46B0BD00BFF2
:100EB000C04F002080B584B000AF786039603968D9
:100EC000786801F08BFB0346002B2ED001F07EFDED
:100ED0001B4BDB88184604F093FF04F0BDFF03466C
:100EE0001A46174B1A810023FB730DE0144B93F83D
:100EF00080310B3BFA7B12490A4492F884219342D9
:100F000006D0FB7B0133FB73FB7B0F2BEED900E09C
:100F100000BF05F007F803461A46FB7B9B1ADAB2BE
:100F2000074B83F88121012306E00023032241219E
:100F3000092011F093FF002318461037BD4680BDED
:100F4000C04F002080B590B002AF002387F8363044
:100F500001F01DFA14F032F9C54BDB88002B01D1EA
:100F600014F00AF90BF016FF034683F00103DBB21D
:100F7000002B26D0BE4BDA68BD4BD3F860319A42C5
:100F800008D9BB4BDA68BA4BD3F86031D31AB84AE8
:100F9000D36016E0B64B0122C3F86021002001F0B7
:100FA000A7FEB34BDA8800231B21092011F056FF5E
:100FB000B04B9B790133DAB2AE4B9A7101F0C6FFA8
:100FC000C3E1AB4B93F86431002B0CD0A84B93F8E2
:100FD00064311A46A64BDB884C21092011F05DFFD5
:100FE00001F0B4FFB1E1A24B0122C3F86021A04B94
:100FF000DA889F4B1B899A4240F0838004F01AFFE5
:1010000004F090FF0346184601F022FF03461A46FB
:10101000974B83F8802104F01FFF03461A46944B38
:101020001A810BF0DFFE0346002B59D00BF0B2FE05
:10103000034683F00103DBB2002B51D08C4B1A899D
:101040008B4BDB889A420AD9894B1B891A46884BFD
:10105000DB88D31A1A46864BC3F860210DE004F0F2
:101060000FFF03461A46824B1B891344804AD288DD
:101070009B1A1A467E4BC3F860217D4B93F8A8015A
:101080007B4BD3F860314FF4A47202FB03F1784B31
:10109000D3F8AC21784B0093012313F05BF9744B28
:1010A000D3F860319BB21A4692001A44D20013441E
:1010B000DB009AB26E4BA3F8A621002387F83730E5
:1010C00006E001F064F997F83730013387F83730DC
:1010D00097F83720664BD3F86031013B9A42F0D342
:1010E00004F0BAFE03461A46614B1A8104F0DAFE98
:1010F000034687F8353097F83530022B00F005812C
:1011000002E001F023FF20E1032B02D0012B40F08D
:101110001081574B0022C3F8682107F124031846B9
:1011200004F0E8FE04F012FF0346002B00F0938069
:1011300007F1240318460CF0D9FF034683F001039E
:10114000DBB2002B3BD004F0C1FE0346002B09D0DC
:1011500007F1240318460CF0D9FD0246444BC3F8AE
:10116000682178E007F1240318460CF05BFD024685
:101170003F4BC3F868213E4BD3F86831002B08D1B0
:1011800007F1240318460CF043FC0246384BC3F821
:101190006821374BD3F86831002B0AD0344BD3F891
:1011A0006831012283F8A82007F12403184603F0D0
:1011B0009FFB07F12403184603F062FB4BE004F0A9
:1011C00085FE0346002B14D00CF06EFC0246284B23
:1011D000C3F86821264BD3F86831002B3BD101239B
:1011E00087F836300CF0CEFB0246214BC3F868215D
:1011F00031E003F031FF0346002B08D007F1240350
:1012000018460CF083FD0246194BC3F86821184BB1
:10121000D3F86831002B10D107F11003184604F001
:101220009DFC0346002B08D007F1100318460CF074
:1012300021FB02460E4BC3F868210D4BD3F86831F1
:10124000002B08D107F1240318460CF07BFA024664
:10125000074BC3F86821064BD3F86831002B0DD13A
:1012600097F83530012B50D101F070FE6DE000BFD2
:10127000C04F0020745100205F062000042001F0C0
:101280000FFE334BD3F8683109225A7097F8363085
:10129000002B20D007F10803184601F0EBF80AF004
:1012A0007FFC03461B0A9BB2DBB2013BDBB2FB7146
:1012B000274BD3F86831D3F8983007F1080105229D
:1012C00018461AF001F8224BD3F86831D3F8983059
:1012D0000533FA791A701E4BD3F8683193F855200C
:1012E0000132D2B283F85520194B93F8A801184B5C
:1012F000D3F8783103F13401154BD3F8AC21154BF9
:101300000093012313F026F81FE00F2001F0C8FD21
:101310000F4B93F8A8010E4BD3F8783103F11E015F
:101320000B4BD3F8AC210B4B0093012313F012F8B5
:101330000BE097F835309AB2054BDB88192109206C
:1013400011F0CAFD01F002FE00BF3837BD4680BD76
:10135000C04F0020F106200080B582B002AF05200A
:1013600001F09EFD244B93F8A801234BD3F878316C
:1013700003F13E01204BD3F8AC21204B0093012315
:1013800012F0E8FF1C4BD3F8683119461C480DF0E9
:101390003DF9194B93F8BD30002B08D0184801F0E7
:1013A00074FF0346002B02D001F0D0FD21E00221A2
:1013B00013480DF0F0F8104B93F88031184614F0F4
:1013C00087FC0D4B9A690C4B1B7F9BB2194610464C
:1013D00014F0BEFC14F0F8FC14F0FCFE0246064BC0
:1013E000C3F89821044B012283F8A021062001F0C4
:1013F00057FDBD4680BD00BFC04F0020F106200054
:10140000D44F002080B500AF064B93F864319AB2F8
:10141000044BDB882321092011F020FD01F096FD0B
:1014200000BF80BDC04F002080B582B002AF072052
:1014300001F036FD0A4B93F8A801094BD3F8783137
:1014400003F16B01064BD3F8AC21064B009301234B
:1014500012F080FF14F0C8FC00BFBD4680BD00BF85
:10146000C04F0020F106200080B500AF064B93F876
:1014700064319AB2044BDB882821092011F0EEFC7C
:1014800001F064FD00BF80BDC04F002080B584B076
:1014900002AF7860082001F003FD134B93F8A80118
:1014A000114BB3F8A63119460F4BD3F8AC210F4BB3
:1014B0000093012312F04EFF0B4A7B68C2F878318B
:1014C000094B93F8A801084BD3F8783103F1A40134
:1014D000054BD3F8AC21064B0093012312F03AFFE1
:1014E00000BF0837BD4680BDC04F00205F0620000A
:1014F000F106200080B500AF064B93F864319AB234
:10150000044BDB882721092011F0A8FC01F01EFD07
:1015100000BF80BDC04F002080B586B002AF7860AC
:10152000092001F0BDFC2D4B93F8A8012B4BB3F81B
:10153000A6311946294BD3F8AC21294B009301233E
:1015400012F008FF14F0F0FB14F044FE0246234BA7
:10155000D3F89831D21A214BD3F89C3113441F4A47
:10156000C2F89C311D4A7B68C2F878311B4BD3F816
:101570006831413318460CF0B9FD0346002B02D008
:101580000023FB7301E00123FB73FB7B002B10D0D6
:10159000124B93F8A801114BD3F8783103F10A01EB
:1015A0000E4BD3F8AC210F4B0093012312F0D2FE67
:1015B00010E00121094804F041FD084BD3F86831DF
:1015C0000021184601F0B0FB044B0022C3F868214B
:1015D00001F0BCFC00BF1037BD4680BDC04F0020ED
:1015E0005F062000F106200080B582B002AF0A201D
:1015F00001F056FC134B93F8A801124BD3F8783145
:1016000003F114010F4BD3F8AC210F4B00930123CE
:1016100012F0A0FE0B4B93F88031184614F058FBE3
:1016200014F00AFC14F0D6FD0246064BC3F89821CC
:10163000044B012283F8A0210B2001F031FC00BFF4
:10164000BD4680BDC04F0020F106200080B500AF30
:10165000064B93F864319AB2044BDB8824210920AD
:1016600011F0FCFB01F072FC00BF80BDC04F0020F8
:1016700080B582B002AF0C2001F012FC14F0ECFB3C
:10168000094B93F8A801084BD3F8783103F12E01E8
:10169000054BD3F8AC21054B0093012312F05AFE01
:1016A00000BFBD4680BD00BFC04F0020F106200036
:1016B00080B500AF0021144804F0C0FC124BD3F8F1
:1016C000683193F85420013AD2B283F854200E4B7B
:1016D000D3F8683193F85430002B07D10A4BD3F874
:1016E00068310121184601F01FFB04E0064BD3F8D6
:1016F00068310A225A70044B0022C3F8682101F0B5
:1017000025FC00BF80BD00BFC04F002080B584B065
:1017100002AF78600D2001F0C3FB134B93F8A801D2
:10172000114BB3F8A63119460F4BD3F8AC210F4B30
:101730000093012312F00EFE0B4A7B68C2F8783149
:10174000094B93F8A801084BD3F8783103F16201F3
:10175000054BD3F8AC21064B0093012312F0FAFDA0
:1017600000BF0837BD4680BDC04F00205F06200087
:10177000F106200080B500AF064B93F864319AB2B1
:10178000044BDB882A21092011F068FB01F0DEFB05
:1017900000BF80BDC04F0020B0B594B002AF7860EC
:1017A0000E2001F07DFB984B93F8A801964BB3F8FF
:1017B000A6311946944BD3F8AC21944B00930123E6
:1017C00012F0C8FD14F0B0FA14F004FD02468E4B7E
:1017D000D3F89831D21A8C4BD3F89C3113448A4AEF
:1017E000C2F89C31884A7B68C2F8783109200BF036
:1017F00081FD0246844BC3F87421834BD3F87431C6
:10180000002B08D1002300222D21092011F026FBF6
:1018100001F09CFBF4E07C4BD3F8743109221A7080
:10182000794BD3F8743109225A70774BD3F874216D
:10183000754BD3F87431C9325A60734BD3F8743195
:101840005868714BD3F8743103F108016E4BD3F82B
:10185000743103F1C5046C4BD3F87431C6336A4A52
:10186000D2F87421C732019200932346822214F0E9
:101870000DFB654BD3F874311B7A012B05D9624BF4
:10188000D3F874311B7A802B0AD95F4BD3F87431AB
:101890001B7A9BB201223821092011F0DFFAA3E064
:1018A000594BD3F87431022118460CF092FE564B76
:1018B000D3F8743193F8C73083F00103DBB2002B07
:1018C00040F08980504BD3F8743107F1080211467B
:1018D00018460DF055FA3B7A83F00103DBB2002B7A
:1018E0007BD1494BD3F87431BA7A83F85220464BF6
:1018F000D3F874317A7C83F85320434BD3F8743196
:1019000041331A4607F135031D685C689868D96849
:10191000156054609060D1601B7C13743A4BD3F80F
:10192000743107F108021146184601F0E6FC03463F
:1019300083F00103DBB2002B51D1334BD3F8743168
:1019400093F8A930002B08D02F4BD3F874311846E8
:1019500001F0A5FC0346002B43D12B4BD3F8743187
:101960007A7A114618460CF0F0FD274BD3F868211F
:1019700007F108031146184600F0D0FC034683F037
:101980000103DBB2002B2ED10BF004FA034683F0E7
:101990000103DBB2002B0ED01B4BD3F87431413363
:1019A00018460AF0CBF80346002B04D0B7F94630AE
:1019B000184601F057F90121134804F03FFB124B80
:1019C000D3F868310021184601F0AEF90E4B002221
:1019D000C3F8682108E000BF06E000BF04E000BFD4
:1019E00002E000BF00E000BF074BD3F87431184697
:1019F0000BF0E0FC044B0022C3F8742101F0A6FABE
:101A00004837BD46B0BD00BFC04F00205F06200074
:101A100080B582B002AF102001F042FA134B93F868
:101A2000A801124BD3F8783103F122010F4BD3F800
:101A3000AC210F4B0093012312F08CFC0B4B93F85D
:101A40008031184614F044F914F0F6F914F0C2FB92
:101A50000246064BC3F89821044B012283F8A021CB
:101A6000112001F01DFA00BFBD4680BDC04F00200F
:101A7000F106200080B500AF064B93F864319AB2AE
:101A8000044BDB882521092011F0E8F901F05EFA0A
:101A900000BF80BDC04F002080B582B002AF1220D1
:101AA00001F0FEF914F0D8F9094B93F8A801084B9E
:101AB000D3F8783103F16A01054BD3F8AC21054B1B
:101AC0000093012312F046FC00BFBD4680BD00BF5D
:101AD000C04F0020F106200080B500AF01F036FABB
:101AE00000BF80BD80B584B002AF7860132001F0E4
:101AF000D7F9154B93F8A801134BB3F8A631194643
:101B0000114BD3F8AC21114B0093012312F022FCAE
:101B10000D4A7B68C2F878310B4A7B68C2F87C3189
:101B2000094B93F8A801084BD3F8783103F1A401CD
:101B3000054BD3F8AC21064B0093012312F00AFCAD
:101B400000BF0837BD4680BDC04F00205F062000A3
:101B5000F106200080B500AF064B93F864319AB2CD
:101B6000044BDB882721092011F078F901F0EEF908
:101B700000BF80BDC04F0020B0B59AB002AF786002
:101B80000023FB83142001F08BF9B54B93F8A801D7
:101B9000B34BB3F8A6311946B14BD3F8AC21B14BD6
:101BA0000093012312F0D6FB14F0BEF814F012FBE0
:101BB0000246AB4BD3F89831D21AA94BD3F89C31DB
:101BC0001344A74AC2F89C3109200BF093FB02464C
:101BD000A34BC3F86C21A24BD3F86C31002B08D176
:101BE000002300222D21092011F038F901F0AEF96F
:101BF0009EE19B4BD3F86C3109221A70984BD3F8B5
:101C00006C3109225A70964BD3F86C21944BD3F85F
:101C10006C31C9325A60924BD3F86C315868904B92
:101C2000D3F86C3103F108018D4BD3F86C3103F11B
:101C3000C5048B4BD3F86C31C633894AD2F86C217A
:101C4000C732019200932346822214F01FF9844B7D
:101C5000D3F86C311B7A012B05D9814BD3F86C3149
:101C60001B7A802B0AD97E4BD3F86C311B7A9BB23E
:101C700002223821092011F0F1F84DE1784BD3F818
:101C80006C31022118460CF0A4FC754BD3F86C3172
:101C900093F8C73083F00103DBB2002B40F03181B1
:101CA0006F4BD3F86C3107F12002114618460DF046
:101CB00067F897F8203083F00103DBB2002B40F087
:101CC0002281674BD3F86C3197F8222083F8522099
:101CD000634BD3F86C3197F8292083F85320604B7D
:101CE000D3F86C3197F8272083F8A1205C4BD3F808
:101CF0006C3141331A4607F14D031D685C689868E2
:101D0000D968156054609060D1601B7C1374544B8B
:101D1000D3F86C3107F120021146184601F0EDFAB4
:101D2000034683F00103DBB2002B40F0EE804C4B06
:101D3000D3F86C3193F8A930002B22D001F06AFA65
:101D40000346002B09D0464BD3F86C31184601F0FE
:101D5000A6FA0346002B14D0DEE0414BD3F86C31D9
:101D600093F85230002B40F0D2803D4BD3F86C21D9
:101D70003B4BD3F86C3193F8BD30194610460CF04C
:101D800028FC374BD3F86C3197F8212011461846C0
:101D90000CF0DBFB97F82230002B21D197F827308D
:101DA000002B1DD004200BF02FF8024607F1200372
:101DB0000B33114618460CF0ADFA0346002B0FD03A
:101DC000274BD3F86C3107F11E0211461846FFF776
:101DD00071F8034683F00103DBB2002B40F09980D9
:101DE0001F4BD3F86C31FA8BD2B2114618460CF067
:101DF000ACFB1B4A7B68C2F8783107F12003184618
:101E000000F054FA034683F00103DBB2002B40F0EC
:101E10008280134BD3F87C319BB2C3F146039AB254
:101E20000F4BD3F86C3112B2A3F8A62097F82530E7
:101E3000002B1BD00A4B93F8A131002B16D0084B76
:101E400093F8A801064BD3F8783103F10A01044B4B
:101E5000D3F8AC21044B0093012312F07BFA67E026
:101E6000C04F00205F062000F10620000AF092FF1C
:101E7000034683F00103DBB2002B35D02E4BD3F8A1
:101E80006C314133184609F059FE0346002B25D129
:101E900001F0C0F9034683F00103DBB2002B1DD132
:101EA00007F10C03184609F017FE034683F00103FF
:101EB000DBB2002B12D107F10C03184609F00CFE1F
:101EC0000346002B10D007F10C03184603F0A0FEC8
:101ED000034683F00103DBB2002B05D0164BD3F889
:101EE0007C31184600F05AFE134BD3F86C3118467B
:101EF00000F03AFF104B0022C3F86C2101F026F8E5
:101F000016E000BF08E000BF06E000BF04E000BF2D
:101F100002E000BF00E000BF074BD3F86C31184669
:101F20000BF048FA044B0022C3F86C2101F00EF8C4
:101F30006037BD46B0BD00BFC04F002080B582B045
:101F400002AF152000F0ACFF654B93F8A801644B7D
:101F5000D3F8783103F11901614BD3F8AC21614B0F
:101F60000093012312F0F6F909200BF0C3F90246A1
:101F70005B4BC3F870215A4BD3F87031002B12D150
:101F8000002300222D21092010F068FF544BD3F8C4
:101F90006C31184600F0E8FE514B0022C3F86C216A
:101FA00000F0D4FF9AE04E4BD3F8703109221A703A
:101FB0004B4BD3F8703109225A70494BD3F87C311E
:101FC0009BB2C3F146039BB21AB2454BA3F8A421BE
:101FD000434BD3F87031022283F85220404BD3F8A0
:101FE0006C213F4BD3F8703192F8532083F8532083
:101FF0003B4BD3F86C213A4BD3F8703192F8A920BF
:1020000083F8A920364BD3F86C21354BD3F87031C7
:1020100092F8AA2083F8AA20314BD3F86C21304BD8
:10202000D3F8703192F8AB2083F8AB202C4BD3F867
:1020300070012B4BD3F8703193F85210284BD3F822
:102040006C3193F85320264BD3F86C314133009315
:10205000134600220CF046FD214BD3F8703193F863
:10206000A930002B11D01E4BD3F87031184601F067
:102070000CF90346002B08D0194BD3F870311846E1
:102080000BF098F900F062FF28E0154BD3F870319F
:10209000022118460CF07FFA114B93F88031184654
:1020A00013F016FE0E4BD3F870315A680C4BD3F870
:1020B00070311B7A9BB21946104613F049FE13F09B
:1020C00083FE14F087F80246054BC3F89821044BB1
:1020D000012283F8A021162000F0E2FEBD4680BD5B
:1020E000C04F0020F106200080B500AF064B93F8EA
:1020F00064319AB2044BDB882621092010F0AEFE31
:1021000000F024FF00BF80BDC04F002080B582B02A
:1021100002AF172000F0C4FE0A4B93F8A801094B48
:10212000D3F8783103F14601064BD3F8AC21064BC6
:102130000093012312F00EF913F056FE00BFBD46C6
:1021400080BD00BFC04F0020F106200080B500AF69
:10215000064B93F864319AB2044BDB88292109209D
:1021600010F07CFE00F0F2FE00BF80BDC04F0020EA
:1021700080B584B002AF7860182000F091FE134B58
:1021800093F8A801114BB3F8A63119460F4BD3F8B9
:10219000AC210F4B0093012312F0DCF80B4A7B6853
:1021A000C2F87831094B93F8A801084BD3F878317D
:1021B00003F16201054BD3F8AC21064B00930123D8
:1021C00012F0C8F800BF0837BD4680BDC04F0020E0
:1021D0005F062000F106200080B500AF064B93F8A3
:1021E00064319AB2044BDB882A21092010F036FEB4
:1021F00000F0ACFE00BF80BDC04F002080B584B0B1
:1022000002AF7860192000F04BFE264B93F8A8012E
:10221000244BB3F8A6311946224BD3F8AC21224BFC
:102220000093012312F096F81E4A7B68C2F87831B9
:102230001C4BD3F8703118460BF0BCF8194B002238
:10224000C3F870210AF0A6FD034683F00103DBB258
:10225000002B09D0134BD3F86C314133184609F0E9
:102260006DFC0346002B07D100F0D4FF034683F03A
:102270000103DBB2002B05D00A4BD3F87C311846A2
:1022800000F08CFC074BD3F86C31184600F06CFD65
:10229000044B0022C3F86C2100F058FE00BF083741
:1022A000BD4680BDC04F00205F06200090B583B0C2
:1022B00000AF78607B681B78002B27D07B689B7809
:1022C000012B03D07B689B78002B1FD17B6803F127
:1022D0000B0404200AF098FD0346194620460CF032
:1022E00019F80346002B11D07B681C3318460AF0FE
:1022F0002FFE0346002B07D17B681C3318460BF0DA
:10230000F5FE0346002B01D0012300E0002303F07B
:102310000103DBB218460C37BD4690BD90B583B0C3
:1023200000AF786039607B681B78002B27D07B6812
:102330009B78022B23D17B6803F10B0404200AF065
:1023400063FD0346194620460BF0E4FF0346002BCD
:1023500015D07B681C3318460AF0FAFD0346002BA3
:102360000DD07B6803F12D023B68413319461046BE
:102370000BF0D0FF0346002B01D0012300E0002327
:1023800003F00103DBB218460C37BD4690BD80B5A3
:1023900082B000AF284BB3F803309BB201339AB23E
:1023A000254BA3F80320244BB3F803309BB2002B3A
:1023B00014D1214BB3F801309BB201339AB21E4BBA
:1023C000A3F801201C4BB3F801309BB2002B05D1C0
:1023D000194B1B780133DAB2174B1A7003F050FD1A
:1023E0000346FB80FB88002B06D1134BDB880133AF
:1023F0009AB2114BDA800BE00F4BDB880133FA887D
:1024000093FBF2F102FB01F29B1A9AB20A4BDA80BB
:10241000094B93F8813101335A4203F00F0302F064
:102420000F0258BF5342DAB2034B83F8812100BF39
:102430000837BD4680BD00BFC04F002080B400AF4C
:102440000B4B0022DA800A4B002283F88121084BD3
:1024500000221A70064B00225A7000229A70044B18
:102460000022DA7000221A7100BFBD4680BC70479E
:10247000C04F002080B483B000AF7860164BB3F833
:1024800003309BB2DAB27B681A70134BB3F8033097
:102490009BB21B0A9AB27B680133D2B21A700E4B00
:1024A000B3F801309AB27B680233D2B21A700A4B89
:1024B000B3F801309BB21B0A9AB27B680333D2B2E5
:1024C0001A707B680433044A12781A7000BF0C3704
:1024D000BD4680BC704700BFC04F002080B483B0B1
:1024E00000AF054BB3F8A431FB80FB8818460C37CE
:1024F000BD4680BC704700BFC04F002080B483B091
:1025000000AF0346FB71084BD3F86C31FA7983F8BE
:10251000A020054BD3F86C31012283F8A32000BF23
:102520000C37BD4680BC7047C04F002090B585B0C9
:1025300000AF786039603B685B78194678680CF0CA
:1025400004F80023FB813B681B78002B20D03B68FC
:10255000DB79002B1CD03B689B78002B18D13B68A3
:1025600003F10B0404200AF04FFC034619462046F1
:102570000BF0D0FE0346002B0AD007F10E031946DC
:102580007868FEF797FC0346002B01D0012300E09A
:102590000023002B01D100231CE03B685B78194627
:1025A00078680BF0ACFF00F035FE0346002B07D037
:1025B000786800F074FE0346002B0AD1012309E07D
:1025C0007B6893F8BD30194678680CF002F8012357
:1025D00000E0002318461437BD4690BD80B58EB08C
:1025E00002AF78603960002387F82F30002387F826
:1025F0002E30002387F82D30002387F82C3000235D
:1026000087F82B30002387F82A3036E07B685A6839
:1026100097F82B3013441B78BB847B685A6897F873
:102620002B30013313441B781B021AB2B7F9243044
:1026300013431BB2BB8497F82B30023387F82B303F
:10264000BB8C87F82830BB8CDB1203F00F03012B07
:1026500003D1B7F92430002B07DB97F82B2097F82C
:102660002830134487F82B3007E0012387F82A30FD
:1026700097F82B3087F8293005E07B681B7A97F8AC
:102680002B209A42C2D397F82A3083F00103DBB2A1
:10269000002B00F02981002367E17B685A6897F8D6
:1026A0002B3013441B78BB847B685A6897F82B3017
:1026B000013313441B781B021AB2B7F924301343B9
:1026C0001BB2BB8497F82B30023387F82B30BB8CBE
:1026D000DB0B9BB287F8233097F82330012B1BD1FB
:1026E000BB8CDB12DBB203F00F0387F82230BB8C0C
:1026F00087F8273097F82230092B00D0EDE07B686F
:102700005A6897F82B3013441B78184600F036FAB5
:10271000012387F82F30E0E0BB8C1B12DBB203F003
:102720007F0387F82230BB8C87F8273097F8223058
:102730001B2B27D01C2B18D01A2B00D0CDE07B6888
:102740005A6897F82B301344184600F012F97B684A
:102750005A6897F82B30053313441B781846FFF757
:10276000CDFE012387F82D30B7E07B685A6897F8D3
:102770002B3013441B78184600F0F0F9012387F83A
:102780002E30AAE07B685A6897F82B3013441B78E8
:10279000184602F0BFFD7B685A6897F82B3001336A
:1027A00013441B78184602F0A1FD03F069FB0346B1
:1027B00087F8213097F82130002B40F08A807B6821
:1027C0005A6897F82B30023313441B78BB847B681C
:1027D0005A6897F82B30033313441B781B021AB244
:1027E000B7F9243013431BB2BB84BB8C184602F0EC
:1027F00063FD7B685A6897F82B30043313441B78C9
:1028000087F8203007F1080311220021184618F03C
:10281000D1FD06233B72002387F8263053E07B6806
:10282000596897F82B0097F8262013469B0013440D
:10283000034405330B441B78FB837B68596897F886
:102840002B0097F8262013469B00134403440633BD
:102850000B441B781B021AB2B7F91E3013431BB28C
:10286000FB837B68596897F82B0097F8262013465E
:102870009B001344034407330B441B78BB837B68E2
:10288000596897F82B0097F8262013469B001344AD
:10289000034408330B441B781B021AB2B7F91C30EF
:1028A00013431BB2BB83BB8BDAB2F88B07F108036F
:1028B000009313460122032102F08AFD97F8263087
:1028C000013387F8263097F8262097F820309A426F
:1028D000A5D3012387F82C3000BF97F82B2097F859
:1028E0002730134487F82B3097F82B2097F82910BE
:1028F00097F828300B449A421FDA97F82F3083F06C
:102900000103DBB2002B7FF4C8AE97F82E3083F0C2
:102910000103DBB2002B7FF4C0AE97F82D3083F0BB
:102920000103DBB2002B7FF4B8AE97F82C3083F0B4
:102930000103DBB2002B7FF4B0AE97F82F30002BF1
:1029400012D097F82E30002B0ED097F82D30002B98
:102950000AD097F82C30002B06D07B681B7A9AB2ED
:102960003B681A80012300E0002318463037BD463B
:1029700080BD80B483B000AF78607B681B789AB26A
:102980007B6801331B789BB21B029BB213449AB243
:102990000D4BA3F803207B6802331B789AB27B6847
:1029A00003331B789BB21B029BB213449AB2064BB3
:1029B000A3F801207B681A79034B1A7000BF0C370B
:1029C000BD4680BC704700BFC04F002080B582B0BC
:1029D00000AF03F055FA0346BB80324B1B783B60D7
:1029E000BA883B68B3FBF2F102FB01F29B1A3B6031
:1029F0003B681B043B602B4BB3F801309BB21A467B
:102A00003B6813443B60BA883B68B3FBF2F102FBBE
:102A100001F29B1A3B603B681B043B60214BB3F8FF
:102A200003309BB21A463B6813443B60BA883B684C
:102A3000B3FBF2F102FB01F29B1A3B603B689AB2D6
:102A4000184BDA80174BDB88184603F0D9F903F0EE
:102A500003FA03461A46134B1A810023FB710DE05B
:102A6000104B93F880310B3BFA790E490A4492F8E7
:102A70008421934206D0FB790133FB71FB790F2B44
:102A8000EED900E000BF03F04DFA03461A46FB7989
:102A90009B1ADAB2034B83F8812100BF0837BD4689
:102AA00080BD00BFC04F002080B483B000AF03469C
:102AB000FB71044AFB7982F8A13100BF0C37BD4697
:102AC00080BC7047C04F002080B483B000AF034685
:102AD000FB71FB790A2B02D9FB791A2B02D9FB79FE
:102AE000002B08D1064AFB7982F88231044B01227F
:102AF00083F8832100E000BF0C37BD4680BC7047DF
:102B0000C04F002080B483B000AF0346FB71044A7D
:102B1000FB7982F8A23100BF0C37BD4680BC7047FC
:102B2000C04F002080B483B000AF0346FB80044A4E
:102B3000FB88A2F8A63100BF0C37BD4680BC7047A9
:102B4000C04F002080B400AF034BB3F8A631184645
:102B5000BD4680BC704700BFC04F002080B483B02A
:102B600000AF0346FB71044AFB7982F8943100BF41
:102B70000C37BD4680BC7047C04F002080B483B086
:102B800000AF0346FB71044AFB7982F8953100BF20
:102B90000C37BD4680BC7047C04F002080B588B060
:102BA00002AF786011F062FD02462B4BD3F8AC31D6
:102BB000D31A3B61284BB3F8A631FB607B68463BD8
:102BC000BB603A697B689A4202D2BB687B6103E0D2
:102BD000FA68BB6813447B617A693B69D31A042B9A
:102BE00005DC7B6903F5A4737B61FFF7D0FB1A4B0F
:102BF00093F8A801184BD3F8AC21184B009301238C
:102C0000796911F0A7FB7B699AB2134BA3F8A6214F
:102C1000114B40F2D662DA600F4B1B7C002B0DD0BB
:102C2000BB6813F1050F02DBBB68052B06DDBB6833
:102C30009AB200231D21092010F010F9084B1B78CF
:102C40000133DAB2064B1A70B86800F0DDF800BF45
:102C50001837BD4680BD00BFC04F00205F06200072
:102C60007451002080B586B002AF78601D4BB3F878
:102C7000A631FB60FA687B681344BB60194B93F87C
:102C8000A801184BD3F8AC21174B00930123B96866
:102C900011F060FBBB689AB2124BA3F8A621114B4E
:102CA00040F2D662DA600F4B1B7C002B0DD07B68A4
:102CB00013F1050F02DB7B68052B06DD7B689AB2FA
:102CC00001231D21092010F0C9F8084B5B7801335E
:102CD000DAB2064B5A70786800F096F800BF1037E9
:102CE000BD4680BDC04F00205F062000745100200B
:102CF00080B582B000AF0346FB710A4AFB791374BA
:102D0000084B1B7C002B04D012F012FD00F04CF895
:102D100003E012F014FD03F061F900BF0837BD466F
:102D200080BD00BFC04F002080B582B000AF78608A
:102D30000B46FB707B68FA7883F840207B6856333B
:102D4000074A1068186012791A717B680B225A7052
:102D5000022104480FF06CFF00BF0837BD4680BD5C
:102D6000C04F0020C768200080B582B000AF7860F7
:102D70007B6856330A4A1068186012791A717B68AA
:102D80005633184603F03CF97B680B225A70012138
:102D900004480FF04DFF00BF0837BD4680BD00BF9F
:102DA000C04F00208D69200080B400AF154B002279
:102DB0001A70144B00225A70124B002242F07F020C
:102DC0009A700022DA700F4B002262F07E021A71B4
:102DD0004FF0FF325A710B4B0022DA7100221A7247
:102DE00000225A7200229A72064B0022DA720022E6
:102DF0001A7300225A7300229A7300BFBD4680BC2A
:102E0000704700BF7451002080B483B000AF786079
:102E10000E4BB3F902301BB21A467B68934203DAB9
:102E20007B681AB2094B5A80084BB3F904301BB2C5
:102E30001A467B68934203DD7B681AB2034B9A8083
:102E400000BF0C37BD4680BC704700BF74510020E6
:102E500080B483B000AF0346FB71104B93F882310E
:102E60000A2B08D90D4B93F882311A2B03D80B4B40
:102E700093F882310DE0094B93F88121FB791344DB
:102E8000DBB203F00F03054A134493F884310B338C
:102E9000DBB218460C37BD4680BC7047C04F0020DF
:102EA00080B582B000AF0346FB71274AFB7982F8F8
:102EB0006431254B93F86431192B40D801A252F8A4
:102EC00023F000BF332F20002D2F2000392F2000AA
:102ED000392F20002D2F2000392F2000392F2000DE
:102EE000392F2000392F2000392F2000392F2000C2
:102EF000392F2000392F2000392F2000392F2000B2
:102F0000332F2000392F2000392F2000392F2000A7
:102F1000392F2000392F2000392F2000392F200091
:102F2000392F2000392F2000392F200012F07EF990
:102F300005E012F06FF902E012F062F900BF00BF85
:102F40000837BD4680BD00BFC04F002090B583B09C
:102F500002AF12F0E9FE704B93F8A031002B0DD0B8
:102F600013F038F902466C4BD3F89831D21A6A4BF9
:102F7000D3F89C311344684AC2F89C31664B93F8ED
:102F8000A801654BB3F8A6311946634BD3F8AC21C1
:102F9000624B0093012311F0DDF95F4B0022C3F86F
:102FA00078215D4B0022C3F87C215D4BD3F80720CC
:102FB000594BD3F89C311344594AC2F80730584B47
:102FC000D3F80B30544AB2F8A6211344544AC2F83D
:102FD0000B30534BD3F80B30002B0DDA504BD3F89A
:102FE0000B305B084E4AC2F80B304D4BD3F807301C
:102FF0005B084B4AC2F80730474B0022C3F89C21BC
:10300000454B002283F8A021434BD3F86831002BB5
:1030100024D00021404803F011F83F4BD3F8683129
:1030200093F85420013AD2B283F854203A4BD3F8A3
:10303000683193F85430002B07D1374BD3F86831FF
:1030400001211846FFF770FE04E0334BD3F86831D6
:103050000A225A70304B0022C3F868212E4BD3F855
:103060006C31002B09D02C4BD3F86C311846FFF78C
:103070007BFE294B0022C3F86C21274BD3F870311B
:10308000002B09D0244BD3F8703118460AF092F97E
:10309000214B0022C3F870211F4BD3F87431002B51
:1030A00009D01D4BD3F8743118460AF083F91A4B36
:1030B0000022C3F874210020FFF7F2FE164B1B7CA0
:1030C000002B0FD0144B93F8B001134BB3F8A6317B
:1030D000203B1946104BD3F8AC21124B009301232F
:1030E00011F038F90C4BB3F8A6311A460A4BD3F855
:1030F000AC31D41811F0BAFA03465B422344203BAA
:10310000054AB2F8A621934201D210F051F900BF4E
:103110000437BD4690BD00BFC04F00205F062000B1
:10312000745100201908200080B400AF024B1B7CB2
:103130001846BD4680BC7047C04F002080B500AF28
:103140000B4B00221A700A4B01225A70084B0022C6
:103150009A7010220021074818F02CF9044B002225
:10316000DA7410220021044818F024F900BF80BD51
:103170009451002097510020A851002080B400AF46
:10318000024B9B781846BD4680BC70479451002086
:1031900080B400AF024BDB7C1846BD4680BC704754
:1031A0009451002090B482B000AF03463960FB71A7
:1031B000094AFB799370084B3A68033314685068E6
:1031C0009168D2681C6058609960DA6000BF083767
:1031D000BD4690BC704700BF9451002090B482B0AF
:1031E00000AF03463960FB71094AFB79D374084B81
:1031F0003A681433146850689168D2681C6058604B
:103200009960DA6000BF0837BD4690BC704700BFC8
:103210009451002080B400AF0B4B1B7883F0010366
:10322000DBB2002B01D001230AE0074B9B78002B77
:1032300005D0054BDB7C002B01D0012300E00023EF
:103240001846BD4680BC70479451002080B400AF42
:10325000034B01221A7000BFBD4680BC704700BFFF
:103260009451002080B483B000AF786000BF0C3769
:10327000BD4680BC704780B483B000AF78603960D1
:1032800000BF0C37BD4680BC704780B483B000AF30
:103290007860002318460C37BD4680BC704780B468
:1032A00083B000AF7860002318460C37BD4680BC61
:1032B000704780B483B000AF0346FB71002318460B
:1032C0000C37BD4680BC704780B483B000AF034666
:1032D000FB710B46BB7113467B71002318460C37FC
:1032E000BD4680BC704780B483B000AF78600023D7
:1032F00018460C37BD4680BC704780B483B000AF21
:1033000078603960012318460C37BD4680BC704791
:1033100080B500AF40F2B4420021024818F04AF8EC
:1033200000BF80BDDC42002080B483B000AF00232A
:10333000BB710023FB710FE0FA790C4913469B0027
:103340001344DB000B441B78002B02D0BB79013304
:10335000BB71FB790133FB71FB791D2BECD9BB7978
:1033600018460C37BD4680BC704700BFDC420020C9
:1033700080B483B000AF0346FB71FA790649134667
:103380009B001344DB000B4416331B8818460C3794
:10339000BD4680BC704700BFDC42002080B483B0D3
:1033A00000AF0346FB71FA79064913469B001344AC
:1033B000DB000B44183393F9003018460C37BD4638
:1033C00080BC7047DC42002080B483B000AF03466D
:1033D000FB71FA79064913469B001344DB000B444A
:1033E0001A331B7818460C37BD4680BC704700BFA7
:1033F000DC42002080B584B000AF0346FB8007F1BB
:103400000D03184608F055FB0346002B27D07B7BA5
:103410001946154A0B469B000B44DB0013441B78EE
:10342000002B1CD07B7B1A4613469B001344DB0009
:1034300018330D4A134405331846FCF7DDFF0346E5
:10344000FB81FA89FB889A4209D97B7B1A4613468D
:103450009B001344DB00044A1344053300E00023BF
:1034600018461037BD4680BDDC42002080B586B0CE
:1034700002AFFF23BB730023BB600023FB7336E066
:10348000FA7B384913469B001344DB000B441B783E
:10349000002B29D0FA7B334913469B001344DB00F1
:1034A0000B4403331B78002B1ED0FA7B2D491346A7
:1034B0009B001344DB000B4422331B78BA7B9A42F7
:1034C00012D3FA7B13469B001344DB00254A1344B6
:1034D0000533BB60FA7B234913469B001344DB0092
:1034E0000B4422331B78BB73FB7B0133FB73FB7BE9
:1034F0001D2BC5D9BB68002B2FD000F0EAFDBB689F
:10350000DB799BB21B029AB2BB681B7A9BB2134455
:10351000FB80FB88184601F067FD0346BB80FB88F3
:10352000184601F07BFD0346FB703B46184602F04F
:103530001DFC0346002B07D03B88BA889A4203D172
:10354000012001F07AFD08E0FA78B888BB680093A2
:1035500013460122032101F03BFFBB6818461037D8
:10356000BD4680BDDC42002080B483B000AF03467E
:10357000FB71FA79064913469B001344DB000B44A8
:1035800023331B7818460C37BD4680BC704700BFFC
:10359000DC42002080B483B000AF0346FB71FA79AF
:1035A000064913469B001344DB000B4424331B786D
:1035B00018460C37BD4680BC704700BFDC42002077
:1035C00080B584B000AF78600023FB7311E0FA7B14
:1035D00013469B001344DB000F4A1344053319467E
:1035E00078680AF097FE0346002B06D1FB7B013377
:1035F000FB73FB7B1D2BEAD900E000BFFA7B064979
:1036000013469B001344DB000B4425331B781846FC
:103610001037BD4680BD00BFDC42002080B58CB0B5
:1036200000AF7860002387F82E307B681B78032B6F
:103630000CD107F11C0207F10803194678680AF05B
:103640009DFC00BF002387F82F302AE07B681B78A1
:103650009AB2002332210D200FF03EFC97F82E3055
:1036600025E097F82F2007F11C031146184601F0BA
:103670004BF80346002B0FD097F82F200E49134626
:103680009B001344DB000B4403331B78002B03D057
:10369000012387F82E3008E097F82F30013387F8A0
:1036A0002F3097F82F301D2BDBD997F82E30184686
:1036B0003037BD4680BD00BFDC42002080B483B0FF
:1036C00000AF0346FB71FA790F4913469B00134480
:1036D000DB000B4403331B78002B0BD0FA790A492B
:1036E00013469B001344DB000B441B78002B01D0D6
:1036F000012300E0002303F00103DBB218460C377E
:10370000BD4680BC704700BFDC42002080B584B05D
:1037100000AF78600123BB737B681B78022B09D054
:103720007B681B789AB2002332210D200FF0D4FB66
:10373000BB7B1DE000BF0023FB7315E0FB7B19463C
:10374000786800F0E1FF0346002B0AD0FA7B0A49B3
:1037500013469B001344DB000B4401331B78BB73FF
:1037600005E0FB7B0133FB73FB7B1D2BE6D9BB7BA9
:1037700018461037BD4680BDDC42002090B585B0AC
:1037800000AF0346FB71FA79104913469B001344BE
:10379000DB000B441B78002B10D0FA790B49134641
:1037A0009B001344DB000B4416331C8808F0F8F927
:1037B00003469C4202D30123FB7301E00023FB7309
:1037C000FB7B18461437BD4690BD00BFDC4200208D
:1037D00080B485B000AF0346FB71FA790F491346F8
:1037E0009B001344DB000B441B78002B0DD0FA79AF
:1037F0000A4913469B001344DB000B441A331B7821
:10380000102B02D90123FB7301E00023FB73FB7B28
:1038100018461437BD4680BC704700BFDC4200200C
:1038200080B588B002AFF8607A601A460B46FB722A
:103830001346BB720123BB750023FB7503E1FB7DBF
:103840001946F86800F060FF0346002B00F0F8808E
:103850000023BB75FA7D894913469B001344DB00A6
:103860000B44013397F824201A70FA7D83491346DC
:103870009B001344DB000B4419331B780133D8B28F
:103880007E4913469B001344DB000B441933024668
:103890001A70FA7D794913469B001344DB000B44F0
:1038A0001833FA7A1A70FA7D13469B001344DB0032
:1038B0001833724A1344053305227968184617F005
:1038C00003FDBB7A002B0AD0FA7D6C4913469B009E
:1038D0001344DB000B44223397F820201A70FA7D42
:1038E000664913469B001344DB000B4403331B78EB
:1038F00083F00103DBB2002B4BD0FA7D5F49134606
:103900009B001344DB000B44183393F9003013F190
:10391000450F33DBFA7D594913469B001344DB0006
:103920000B4404331B780133D8B2544913469B002F
:103930001344DB000B44043302461A70FA7D4F49EE
:1039400013469B001344DB000B4404331B78022B0B
:103950007ED9FA7D494913469B001344DB000B4492
:10396000043300221A70FA7D444913469B00134425
:10397000DB000B44033301221A7069E0FA7D3F49F2
:1039800013469B001344DB000B44043300221A70DF
:103990005EE0FA7D394913469B001344DB000B447B
:1039A00003331B78002B53D0FA7D344913469B0018
:1039B0001344DB000B44183393F9003013F1500F1C
:1039C00033DAFA7D2D4913469B001344DB000B4488
:1039D00004331B780133D8B2284913469B001344A3
:1039E000DB000B44043302461A70FA7D2349134668
:1039F0009B001344DB000B4404331B78022B27D9B4
:103A0000FA7D1E4913469B001344DB000B4404332C
:103A100000221A70FA7D194913469B001344DB00FB
:103A20000B44033300221A7012E0FA7D1349134647
:103A30009B001344DB000B44043300221A7007E0A0
:103A4000FB7D0133FB75FB7D1D2B7FF6F8AE00E09F
:103A500000BFBB7D002B0DD0BA7A97F90B1097F8F9
:103A60002430019397F82030009313467A68F86861
:103A700000F082FC00BF1837BD4680BDDC4200204C
:103A800080B584B000AF7860084611461A460346F8
:103A9000FB700B46BB7013467B7078680AF026FB00
:103AA0000346002B40F0BA800023FB73B1E0FB7BA0
:103AB0001946786800F028FE0346002B00F0A68027
:103AC000FA7B594913469B001344DB000B44263311
:103AD00001221A70FA7B544913469B001344DB0001
:103AE0000B44273300221A707B78002B0DD0FA7B11
:103AF00013469B001344DB0018334B4A1344053331
:103B00000522B969184617F0DFFBBB78002B00F0DF
:103B10008780FA7B444913469B001344DB000B4427
:103B20001A331B781A46FB78C3F1FF039A423DDD36
:103B3000FA7B3D4913469B001344DB000B441C33C6
:103B40001B780133D8B2384913469B001344DB007D
:103B50000B441C3302461A70FA7B334913469B0010
:103B60001344DB000B441A331B78FA7B5B08D8B292
:103B70002D4913469B001344DB000B441A330246C5
:103B80001A70FA7B284913469B001344DB000B4450
:103B90001B331B78FA7B5B08D8B2234913469B0082
:103BA0001344DB000B441B3302461A70FA7B1E4998
:103BB00013469B001344DB000B441A331978FA7B3D
:103BC000FB780B44D8B2184913469B001344DB0022
:103BD0000B441A3302461A707B78002B13D0FA7B01
:103BE000114913469B001344DB000B441B331B7825
:103BF0000133D8B20C4913469B001344DB000B443D
:103C00001B3302461A7007F0E7FF09E0FB7B013324
:103C1000FB73FB7B1D2B7FF64AAF02E000BF00E089
:103C200000BF1037BD4680BDDC42002080B584B0A7
:103C300000AF78600023FB733CE0FA7B13469B00E7
:103C40001344DB00204A13440533194678680AF010
:103C500061FB0346002B2AD0FA7B1B4913469B00CD
:103C60001344DB000B4425331B78FA7B0133D8B2B5
:103C7000154913469B001344DB000B4425330246D1
:103C80001A70FA7B104913469B001344DB000B4467
:103C900025331B78002B11D1FA7B0B4913469B006F
:103CA0001344DB000B44253301221A7006E0FB7B32
:103CB0000133FB73FB7B1D2BBFD900E000BF00BFAE
:103CC0001037BD4680BD00BFDC42002080B584B007
:103CD00000AF78600023FB731CE0FA7B13469B0067
:103CE0001344DB000F4A13440533194678680AF081
:103CF00011FB0346002B0AD0FA7B0A4913469B00AE
:103D00001344DB000B44253300221A7005E0FB7BD3
:103D10000133FB73FB7B1D2BDFD900BF1037BD4682
:103D200080BD00BFDC42002080B584B000AF786069
:103D30000B46FB701346BB700023FB73FB78022B12
:103D40001AD17B68581CBA7813469B001344DB00D9
:103D5000104A134406330822194617F0B5FA7B6857
:103D600002221A70BA780B4913469B001344DB00F9
:103D70000B441B78FB7307E0FB789AB201233221D6
:103D80000D200FF0A9F800BFFB7B18461037BD4689
:103D900080BD00BFDC42002080B584B000AF7860F9
:103DA0000023FB7352E0FA7B13469B001344DB00B5
:103DB0002A4A13440533194678680AF0ABFA0346D9
:103DC000002B40D0FA7B254913469B001344DB00AF
:103DD0000B4426331B78042B13D8FA7B1F49134658
:103DE0009B001344DB000B4426331B780133D8B20D
:103DF0001A4913469B001344DB000B44263302464A
:103E00001A700AF04BF8034659B2FA7B134813466E
:103E10009B001344DB00034426331B781A4601231E
:103E20009340DBB2013BDBB25BB20B405BB2FA7B8F
:103E3000D8B20A4913469B001344DB000B442733D6
:103E400002461A7005E0FB7B0133FB73FB7B1D2BE5
:103E5000A9D900BF1037BD4680BD00BFDC4200209D
:103E600080B584B000AF78600023FB7331E0FA7B4B
:103E700013469B001344DB001A4A134405331946CA
:103E800078680AF047FA0346002B1FD0FA7B1549E1
:103E900013469B001344DB000B4427331B78002B95
:103EA0001BD0FA7B0F4913469B001344DB000B44E5
:103EB00027331B78013BD8B20A4913469B001344B1
:103EC000DB000B44273302461A7006E0FB7B01330C
:103ED000FB73FB7B1D2BCAD900E000BF00BF10376E
:103EE000BD4680BDDC42002080B584B000AF786064
:103EF0000023BB730023FB7320E0FA7B13469B0077
:103F00001344DB00114A13440533194678680AF05C
:103F100001FA0346002B0ED0FA7B0C4913469B0096
:103F20001344DB000B4427331B78002B0CBF012309
:103F30000023BB7305E0FB7B0133FB73FB7B1D2B75
:103F4000DBD9BB7B18461037BD4680BDDC42002064
:103F500080B584B000AF78600023FB7326E0FA7B65
:103F600013469B001344DB00144A134405331946DF
:103F700078680AF0CFF90346002B14D0FA7B0F497A
:103F800013469B001344DB000B44263301221A70B6
:103F9000FA7B0A4913469B001344DB000B4427338A
:103FA00000221A7005E0FB7B0133FB73FB7B1D2BAA
:103FB000D5D900BF1037BD4680BD00BFDC42002010
:103FC00080B483B000AF03460A46FB711346BB8042
:103FD000FA79074913469B001344DB000B44163360
:103FE000BA881A8000BF0C37BD4680BC704700BF3E
:103FF000DC42002080B584B000AF78600023FB7302
:1040000017E0FB7B1946786800F07EFB0346002B27
:104010000CD0FA7B0A4913469B001344DB000B4487
:10402000233301221A7007F0D7FD05E0FB7B013333
:10403000FB73FB7B1D2BE4D900BF1037BD4680BD51
:10404000DC42002080B483B000AF03460A46FB7117
:104050001346BB71FA79B879064913469B0013449D
:10406000DB000B44023302461A7000BF0C37BD461A
:1040700080BC7047DC42002080B584B000AF78601F
:104080007B68DB799BB21B029AB27B681B7A9BB27E
:104090001344FB81FB89184600F0A6FF0346BB8151
:1040A00007F10A03184601F061FE0346002B07D012
:1040B0007B89BA899A4203D1002000F0BEFF04E058
:1040C000BB897968184601F05FFA00BF1037BD461A
:1040D00080BD80B500AF01F045FB00BF80BD80B45E
:1040E00085B000AF0346FB71FA79424913469B0045
:1040F0001344DB000B441B331B78002B2FD1FA79C0
:104100003C4913469B001344DB000B441A331B78D5
:10411000042B20D9FA79374913469B001344DB005E
:104120000B441A331B780F2B11D8FA7931491346F7
:104130009B001344DB000B441A331B781A461346CA
:104140005B001344023B9BB21B02FB814CE04FF629
:10415000FF73FB8148E04FF42063FB8144E0FA7970
:10416000244913469B001344DB000B441A331B788D
:104170009B02BB60BA6813465B0013441B021846DF
:10418000FA791C4913469B001344DB000B441B3394
:104190001B78B0FBF3F3BB60BB68A3F50023BB60E7
:1041A000BB68B3F1806F03D34FF6FF73FB8102E06E
:1041B000BB689B0AFB81FB89B3F5206F14D9FA79A0
:1041C0000C4913469B001344DB000B441A331B7845
:1041D000102B09D9FA79074913469B001344DB00D9
:1041E0000B44243301221A70FB8918461437BD464C
:1041F00080BC7047DC42002080B588B000AF3B1D1A
:10420000184607F069FC034683F00103DBB2002B7C
:1042100061D13B1D184607F05FFC0346002B09D017
:104220003B1D184601F04EFC034683F00103DBB250
:10423000002B50D10023FB7749E0FA7F2849134631
:104240009B001344DB000B441B78002B3CD0FA7F0F
:1042500013469B001344DB001833214A13440533F3
:104260001846FCF7C9F8B861BB6940F6AC529342F6
:104270002AD9FA7F1A4913469B001344DB000B44EA
:1042800023331B7883F00103DBB2002B1CD0FA7FB1
:10429000134913469B001344DB000B4424331B7863
:1042A00083F00103DBB2002B0ED0FA7F0C491346DA
:1042B0009B001344DB000B4402331B78002B03D11B
:1042C000FB7F184600F06AF9FB7F0133FB77FB7F29
:1042D0001D2BB2D900E000BF2037BD4680BD00BF16
:1042E000DC420020F0B58DB000AF214B93F8B23422
:1042F0005A1C204B83FB021313441911D317C91AFC
:104300000B461B015B1A5B00D11ACAB2184B83F82B
:10431000B224174B93F8B2343B71154B93F8B23477
:104320001946134A0B469B000B44DB0013441C4602
:1043300007F1050C04F1200E654626460FCE2860D5
:104340006960AA60EB6010340CF1100C7445F3D175
:104350006246234603CB106051603B1D292219465B
:1043600009200EF023FD012318463437BD46F0BD69
:10437000DC4200208988888880B586B000AFF8606C
:104380007A601A460B46FB721346BB72FB681B78B9
:10439000022B08D0FB681B789AB2022332210D2031
:1043A0000EF09AFDD7E0F86800F0DAF8034683F0E3
:1043B0000103DBB2002B00F0CE800023FB75BAE0D6
:1043C000FA7D664913469B001344DB000B441B78BF
:1043D00083F00103DBB2002B00F0AA8097F90B30C9
:1043E00013F1500FC0F2AC80FA7D5C4913469B007C
:1043F0001344DB000B4401221A70FA7D574913461F
:104400009B001344DB000B44013397F824201A70FF
:10441000FA7D524913469B001344DB000B440333DF
:1044200001221A70FA7D4D4913469B001344DB00AC
:104430000B44043300221A70FA7D13469B00134488
:10444000DB00464A134405331122F968184616F07A
:104450003BFFFA7D414913469B001344DB000B44AC
:1044600016334FF6FF721A80FA7D3C4913469B00C3
:104470001344DB000B441833FA7A1A70FA7D37497B
:1044800013469B001344DB000B44193301221A70BE
:10449000FA7D324913469B001344DB000B441A3368
:1044A00000221A70FA7D2D4913469B001344DB004D
:1044B0000B441B3300221A70FA7D13469B001344F1
:1044C000DB001833254A1344053305227968184662
:1044D00016F0FAFEFA7D214913469B001344DB00D7
:1044E0000B44263301221A70FA7D1C4913469B00A7
:1044F0001344DB000B44273300221A70BB7A002BD5
:104500000BD0FA7D154913469B001344DB000B4486
:10451000223397F820201A7013E0FA7D0F491346D2
:104520009B001344DB000B442233FF221A7008E087
:10453000FB7D0133FB75FB7D1D2B7FF641AF00E05A
:1045400000BFFB7D1E2B06D100231E2215210D204E
:104550000EF084FC00BF1837BD4680BDDC42002051
:1045600080B584B000AF78600023FB730023FB7339
:104570000CE0FB7B1946786800F0C6F80346002B78
:1045800001D0012306E0FB7B0133FB73FB7B1D2B7A
:10459000EFD9002318461037BD4680BD80B483B0E4
:1045A00000AF0346FB71FA79564913469B0013444A
:1045B000DB000B4400221A70FA79524913469B0023
:1045C0001344DB000B44023300221A70FA794D4980
:1045D00013469B001344DB000B44033300221A7084
:1045E000FA79484913469B001344DB000B4404331B
:1045F00000221A70FA79434913469B001344DB00EA
:104600000B4416334FF6FF721A80FA793D49134670
:104610009B001344DB000B44183300221A70FA7914
:10462000384913469B001344DB000B441933002226
:104630001A70FA79334913469B001344DB000B448C
:104640001A3300221A70FA792E4913469B0013443C
:10465000DB000B441B3300221A70FA7929491346F8
:104660009B001344DB000B44203300221A80FA79AC
:10467000244913469B001344DB000B441E330022E5
:104680001A80FA791F4913469B001344DB000B4440
:104690001D3300221A70FA791A4913469B001344FD
:1046A000DB000B44233300221A70FA7915491346B4
:1046B0009B001344DB000B44253300221A70FA7967
:1046C000104913469B001344DB000B4426330122A0
:1046D0001A70FA790B4913469B001344DB000B4414
:1046E000273300221A70FA79064913469B001344B7
:1046F000DB000B44053300221A7000BF0C37BD46A7
:1047000080BC7047DC42002080B582B000AF78608A
:104710000B46FB707B681B78022B1FD1FA78164979
:1047200013469B001344DB000B441B78002B10D076
:10473000FA7813469B001344DB000F4A13440533F9
:104740001946786809F0E6FD0346002B01D00123E5
:1047500000E0002303F00103DBB208E07B681B7874
:104760009AB2032332210D200EF0B6FB0023184627
:104770000837BD4680BD00BFDC420020B0B588B020
:1047800002AF0A220021384816F014FE364B0022F0
:104790005A70364B364A3749374801F0E3FD3B1D26
:1047A00011220021184616F005FE06233B71022057
:1047B00008F02AFB0346DB799BB21B029CB2022065
:1047C00008F022FB03461B7A9BB223449BB2184697
:1047D00000F00AFC03461D46022008F015FB0346C4
:1047E000DB799BB21B029CB2022008F00DFB034652
:1047F0001B7A9BB223449BB2184600F00FFC034681
:104800001A463B1D0093134600220321284600F060
:10481000DFFD0A21FF200FF003FC03461A46124B6E
:104820005A71114B47F23052DA800F4B5C790E4BC4
:10483000DA880D4BDB881946104609F069FB034600
:1048400019460E4B00930023002220460FF04CFC2B
:104850000A21FF200FF0E4FB03461A46024B1A72AE
:1048600000BF1837BD46B0BDB85100208B492000AD
:104870007D4920006F49200061492000354A200011
:1048800080B582B000AF7860786807F057F90346CA
:1048900083F00103DBB2002B20D1124BDB78013314
:1048A000DAB2104BDA700F4BDB78402B17D10D4B7F
:1048B0001B79302B03D90A210B480EF0B9F9094BAB
:1048C0001B790F2B03D80A2108480EF0B1F9054BCC
:1048D0000022DA70034B00221A7100E000BF083793
:1048E000BD4680BDB8510020C54A2000554B200070
:1048F00080B582B000AF7860786807F01FF9034692
:1049000083F00103DBB2002B06D1054B1B79013389
:10491000DAB2034B1A7100E000BF0837BD4680BD14
:10492000B851002080B588B006AF7860786801F093
:104930006FF90346002B0FD0002304930023039349
:1049400000230293002301930023009301230122FB
:104950007968072001F020FD00BF0837BD4680BD03
:1049600080B400AF00231846BD4680BC704780B4B9
:1049700000AF00231846BD4680BC704780B400AF2E
:1049800000231846BD4680BC704780B586B002AF94
:1049900003463960FB71FB79032B02D0FB79092BAD
:1049A0001CD1184B01225A7209F078FA0346164AB4
:1049B000A2FB0312520B47F2305101FB02F29B1A89
:1049C0009BB203F5EA433033FB810E4B187AF98929
:1049D0000E4B0093012300220FF086FBFB79062B80
:1049E00002D0FB79072B03D10A2109480EF020F9E8
:1049F000FB79082B02D13868FFF7FCFA00BF1037AB
:104A0000BD4680BDB851002073B2E745154A20006D
:104A10007D4A200080B483B000AF0346FB71044B95
:104A200000225A7200BF0C37BD4680BC704700BFE1
:104A3000B851002080B584B000AF0346FB710B4B2A
:104A4000DA880A4BDB881946104609F061FA0346FA
:104A5000FB60064B5B79F96818460FF0ABFD00F080
:104A600007F800BF1037BD4680BD00BFB851002019
:104A700080B500AF00F092F900BF80BD80B58CB06A
:104A800006AF3B1D184607F027F80346FB75FB7D74
:104A900083F00103DBB2002B10D1391D00230493F6
:104AA0000023039300230293002301930023009328
:104AB00001230122072001F06FFC00E000BF18373E
:104AC000BD4680BD80B592B006AFFEF72DFB034614
:104AD00083F00103DBB2002B2FD11D4B5B7A002B3F
:104AE0002DD107F11C03184606F0F6FF034687F8A0
:104AF0002F3097F82F3083F00103DBB2002B20D149
:104B00003B460121184600F089F8034683F0010373
:104B1000DBB2002B17D107F11C0100230493002303
:104B2000039300230293002301933B460093012348
:104B30000122012001F030FC06E000BF04E000BFCC
:104B400002E000BF00E000BF3037BD4680BD00BFBF
:104B5000B851002080B592B006AFFEF7E5FA0346E3
:104B600083F00103DBB2002B39D1234B5B7A002B9E
:104B700037D107F11C03184606F0AEFF034687F84D
:104B80002F3097F82F3083F00103DBB2002B2AD1AE
:104B900007F11C03184600F057FE0346012B24D9E9
:104BA00007F11C013B460122184600F092F803462B
:104BB00083F00103DBB2002B19D107F11C010023A4
:104BC000049300230393002302933B4601930023A5
:104BD000009301230122022001F0DEFB08E000BF68
:104BE00006E000BF04E000BF02E000BF00E000BF3D
:104BF0003037BD4680BD00BFB851002080B483B0BF
:104C000000AF0346FB71044AFB79537000BF0C37B9
:104C1000BD4680BC704700BFB851002090B585B03C
:104C200000AF78600B46FB7019220021786816F0FF
:104C3000C1FB0023BB730023FB7339E009F02EF99D
:104C400003461C4601F01CF90346B4FBF3F203FBD8
:104C500002F3E31ABB81BB89184600F00DFD034641
:104C6000002B22D0BA7B13469B0013447A6813446E
:104C7000BA89A3F8012009F011F903461946BA7B55
:104C800013469B0013447A68134401F00F0292B25A
:104C9000A3F80320BA7B13469B0013447A6813449D
:104CA00001221A70BB7B0133BB73FB7B0133FB73A7
:104CB000FB7B042BC2D9BA7BFB789A4202D3FB78E8
:104CC000002B01D1002300E0012318461437BD4614
:104CD00090BD90B58DB000AFF860B9601346FB7120
:104CE00019220021F86816F065FB002387F82E30A2
:104CF000002387F82F303BE097F82F309BB207F165
:104D000014021146184600F019FB97F82530012BC4
:104D100029D197F82E2013469B001344FA681344B8
:104D200097F82F2092B2A3F8012097F82A1097F84D
:104D30002E2013469B001344FA6813448AB2A3F84A
:104D4000032097F82E2013469B001344FA6813445F
:104D500001221A7097F82E30013387F82E3097F819
:104D60002E30052B0DD097F82F30013387F82F30D8
:104D700097F82F309CB201F083F803469C42BBD3D6
:104D800000E000BF97F82E20FB799A4201D2002361
:104D900000E0012318463437BD4690BD80B5A6B06B
:104DA00006AFFEF7C1F9034683F00103DBB2002B27
:104DB00040F00A8107F16803184606F08DFE0346AD
:104DC00087F87F3097F87F3083F00103DBB2002B48
:104DD00040F0FC8007F1540207F1680311461846C1
:104DE00000F066FF0346002B1ED007F1540318465F
:104DF00000F00EFF0346002B11D007F154010023F1
:104E000004930023039300230293002301930023C0
:104E1000009301230122072001F0BEFADFE007F131
:104E200054031846FFF728F907F16803184600F005
:104E300049FE034683F00103DBB2002B78D097F8DC
:104E40006F309BB21B029AB297F870309BB213443A
:104E5000A7F87C30B7F87C30184600F0C5F8034658
:104E6000A7F87A30B7F87C30184600F0D7F8034638
:104E700087F8793007F11A03184600F077FF0346E8
:104E8000002B08D07B8BB7F87A209A4203D10120FF
:104E900000F0D3F84CE0B7F87A30184600F0ECFB9D
:104EA0000346002B0CD097F87920B7F87A0007F169
:104EB0006803009313460122032100F089FA37E0CA
:104EC0003A46B7F87A301146184600F037FA07F13B
:104ED0001C0319220021184616F06CFA01233B77B7
:104EE000B7F87A30A7F81D30BB7D9BB2A7F81F300A
:104EF00007F1380301211846FFF790FE034683F0BF
:104F00000103DBB2002B63D17A7C39460023049382
:104F1000002303930023029307F11C03019307F17D
:104F20003803009313460122032001F035FA56E0BE
:104F300007F16803184600F087FC0346002B02D1F6
:104F4000FFF7C0FD4BE0274B5B7A002B42D107F106
:104F50006803184600F0BEFC034683F00103DBB291
:104F6000002B39D107F11C0319220021184616F035
:104F700021FA07F11C0207F168031146184600F0F8
:104F8000E5FC0346002B2AD007F13803012118461F
:104F9000FFF744FE034683F00103DBB2002B1DD173
:104FA00007F1680100230493002303930023029375
:104FB00007F11C03019307F1380300930123012239
:104FC000032001F0E9F90AE000BF08E000BF06E0B5
:104FD00000BF04E000BF02E000BF00E000BF803778
:104FE000BD4680BDB851002080B483B000AF0346F9
:104FF000FB80FA88084BA3FB0213D9080B465B0021
:105000000B449B00D31A9BB201339BB218460C375A
:10501000BD4680BC704700BFABAAAAAA80B483B0CB
:1050200000AF0346FB80FB88DBB203F00F03DBB26B
:1050300018460C37BD4680BC704780B483B000AFC3
:105040000346FB71034AFB79137000BF0C37BD4662
:1050500080BC7047B851002080B400AF024B1B7871
:105060001846BD4680BC7047B851002080B582B05C
:1050700000AF4FF441720021144816F09BF9002351
:10508000FB710CE0FA791346DB0013449B000F4AD6
:105090001344184601F0AEF8FB790133FB71FB793C
:1050A000142BEFD9094B012283F8FE22074B15225E
:1050B000A3F8FA2207F06EFE0346002B01D000F0A1
:1050C00007F800BF0837BD4680BD00BFC4510020AF
:1050D00080B588B002AF0023BB82164BB3F8F8321C
:1050E000002B02D10D2000F0E7F8002000F0FEF8C0
:1050F000012000F00FF93B4611220021184616F05E
:1051000059F906233B70BB8AFB820AE0F88A3B46CA
:10511000009300230122032100F05AF9FB8A013396
:10512000FB82FA8ABB8A01339A42EFDB00BF183751
:10513000BD4680BDC4510020B0B588B000AF514B12
:1051400093F8003301334F4AB2F8FA2293FBF2F19D
:1051500002FB01F29B1ADAB24A4B83F80023494B57
:1051600093F800333B70474B93F800331946454A98
:105170000B46DB000B449B0013441B88A7F801304F
:10518000404B93F8003319463E4A0B46DB000B4474
:105190009B00134402331B78FB703A4B93F80033A7
:1051A0001946384A0B46DB000B449B00134403337B
:1051B0001B783B71334B93F800331946314A0B4649
:1051C000DB000B449B00134404331B787B712D4B95
:1051D00093F800331A461346DB0013449B00294A18
:1051E00013445A1DBB1D156854689068D1681D6032
:1051F0005C609860D960127C1A74224B93F800337B
:105200001946204A0B46DB000B449B00134416331F
:105210001B78FB751B4B93F800331946194A0B4654
:10522000DB000B449B00134417331B783B76154B74
:1052300093F800331946134A0B46DB000B449B00DE
:10524000134418331B787B760E4B93F800331A46C1
:105250001346DB0013449B0018330A4A13445A1CBC
:1052600007F11A031168196012791A713B461F225F
:10527000194606200DF09AFD012318462037BD4639
:10528000B0BD00BFC451002080B582B000AF094B53
:1052900093F8FE323B71074B93F8FF327B713B1D55
:1052A0000222194607200DF081FD01231846083718
:1052B000BD4680BDC451002080B582B000AF03461A
:1052C000FB8013F028F9084AFB88A2F8F832FB8823
:1052D000152B03D8044AFB88A2F8FA3213F00FF911
:1052E00000BF0837BD4680BDC451002080B582B0E4
:1052F00000AF0346FB7113F00EF9054AFB7982F803
:10530000FC3213F0FCF800BF0837BD4680BD00BF7B
:10531000C451002080B582B000AF0346FB7113F08A
:10532000FAF8054AFB7982F8FD3213F0E8F800BF7D
:105330000837BD4680BD00BFC451002080B584B091
:1053400000AF03463960FB80204BFB601EE0FB682A
:105350001B88FA889A4216D1FB689A783B685A747F
:10536000FB68DA783B689A743B68FA889A82FB6833
:105370001A793B689A753868FB680533112219461B
:1053800015F0A2FF1EE0FB682433FB600F4BB3F85F
:10539000FA325A1E1346DB0013449B000B4A134497
:1053A000FA689A42D3D93B6800225A743B680022BB
:1053B0009A743B6800229A753B68112200211846B6
:1053C00015F0F8FF1037BD4680BD00BFC451002066
:1053D00090B589B000AF0446084611461A462346E8
:1053E000FB8003467B710B463B711346FB7013F049
:1053F00092F8644BFB6102E0FB692433FB61FB69BB
:105400009B78002B0CD05F4BB3F8FA325A1E134630
:10541000DB0013449B005B4A1344FA699A42EBD9C0
:10542000584BB3F8FA325A1E1346DB0013449B0064
:10543000544A1344FA699A4209D913F060F80023D8
:10544000002218210E200DF009FD012396E0FB69D2
:10545000FA881A80FB697A799A70FB693A79DA706E
:10546000FB69FA781A71FB6905331122396B18460A
:1054700015F02AFF07F10C031846FCF7FBFF7B7BB6
:105480009BB21B029AB23B7B9BB213449AB2FB695C
:105490009A83FB7B9BB21B029AB2BB7B9BB21344E9
:1054A0009AB2FB695A833A7CFB695A76354BD3F83A
:1054B000F432002B07D1FB69FA691A62314AFB69A1
:1054C000C2F8F43257E02F4BD3F8F432BB61BB691A
:1054D0001B6A7B61BB691A88FB691B889A4205D2EB
:1054E000FB691A887B691B889A423ED3BB691A887C
:1054F000FB691B889A4205D27B691A88BB691B88A5
:105500009A4232D9FB691A887B691B889A4205D274
:105510007B691A88BB691B889A4226D9BB691A889D
:10552000FB691B889A421DD1FB691A880023402120
:105530000E200DF093FCFB6900221A80FB6900220B
:105540009A70FB690022DA70FB6900221A71FB690C
:10555000053311220021184615F02CFF12F0CFFF61
:1055600001230BE07B69BB61B1E7BB69FA691A6291
:10557000FB697A691A6212F0C2FF002318462437C9
:10558000BD4690BDC451002080B584B000AF034635
:105590003960FB8012F0BFFF364BFB6010E0FB6808
:1055A0001B88FA889A4208D1FB6805331946386887
:1055B00008F0B0FE0346002B10D1FB682433FB60DB
:1055C0002C4BB3F8FA325A1E1346DB0013449B00EF
:1055D000284A1344FA689A42E1D900E000BF254BFB
:1055E000B3F8FA325A1E1346DB0013449B00214ADB
:1055F0001344FA689A4209D912F081FF002300226D
:105600002F210E200DF068FC01232FE0FB681B6AA0
:10561000FA689A4207D1FB6800221A62154B0022F1
:10562000C3F8F4221CE0134BD3F8F432BB60BB6820
:105630001B6AFA689A4203D0BB681B6ABB60F6E734
:1056400000BFFB681A6ABB681A620A4BD3F8F432CF
:10565000FA689A4204D1FB681B6A064AC2F8F4321F
:10566000F86800F0C7FD12F04AFF00231846103713
:10567000BD4680BDC451002080B584B000AF034654
:10568000FB8012F048FF134BB3F8F832FA889A42C5
:1056900003D312F034FF002318E00E4BD3F8F4329A
:1056A000FB60FB681B88FA889A4203D112F027FF3F
:1056B00000230BE0FB681B6AFB60064BD3F8F43257
:1056C000FA689A42EDD112F01AFF012318461037FA
:1056D000BD4680BDC451002080B584B000AF0346F4
:1056E0003960FB710023FB7333E0FA7B1346DB0068
:1056F00013449B001A4A134405333968184608F0CE
:1057000009FE0346002B21D0FA7B15491346DB0026
:1057100013449B000B4402331B78012B0AD0FA7B05
:105720000F491346DB0013449B000B4402331B78E4
:10573000022B0BD1FA7B0A491346DB0013449B0072
:105740000B441B8839681846FFF71EFFFB7B0133AB
:10575000FB73FB7B142BC8D900BF1037BD4680BD3F
:10576000C451002080B582B000AF0023FB7136E049
:10577000FA7920491346DB0013449B000B440233A3
:105780001B78032B28D1FA791A491346DB001344FE
:105790009B000B4403331B78002B1DD0FA7915496D
:1057A0001346DB0013449B000B4405331B78022B8C
:1057B00012D1FA790F491346DB0013449B000B44C6
:1057C0001888FA791346DB0013449B00094A1344F6
:1057D00005331946FFF7D8FEFB790133FB71FB79DE
:1057E000142BC5D90020FFF728FC00BF0837BD46A1
:1057F00080BD00BFC451002080B582B000AF12F060
:105800008AFE0023BB710023FB7110E0FA790D4979
:105810001346DB0013449B000B4402331B78002B20
:1058200002D1BB790133BB71FB790133FB71FB7989
:10583000142BEBD912F063FEBB7918460837BD462E
:1058400080BD00BFC451002080B584B000AF786037
:1058500012F061FE0023BB730023FB732DE0FA7B83
:105860001B491346DB0013449B000B4403331B7896
:1058700083F00103DBB2002B1CD0FA7B14491346E2
:10588000DB0013449B000B4402331B78012B11D126
:10589000FA7B1346DB0013449B000D4A1344053387
:1058A0007968184608F036FD0346002B02D0BB7B12
:1058B0000133BB73FB7B0133FB73FB7B142BCED912
:1058C00012F01DFEBB7B18461037BD4680BD00BFE1
:1058D000C451002080B584B000AF786012F01BFE88
:1058E0000023BB730023FB7323E0FA7B1346DB002A
:1058F00013449B00144A134405337968184608F092
:1059000009FD0346002B11D0FA7B0F491346DB003B
:1059100013449B000B4417331B785BB2002B01DA56
:105920000123BB7312F0EBFDBB7B08E0FB7B013373
:10593000FB73FB7B142BD8D912F0E1FDBB7B18461F
:105940001037BD4680BD00BFC451002080B584B073
:1059500000AF7860396012F0DEFD0023BB810023C8
:10596000FB733BE0FA7B1346DB0013449B00544A75
:10597000134405337968184608F0CCFC0346002B25
:1059800029D0FA7B4E491346DB0013449B000B449D
:1059900017331B78002B1ED0FA7B49491346DB00D6
:1059A00013449B000B4418331B781A46642303FBF3
:1059B00002F1FA7B42481346DB0013449B00034488
:1059C00017331B7891FBF3F37B817A89BB899A4269
:1059D00001D97B89BB81FB7B0133FB73FB7B142BE0
:1059E000C0D9BB89002B03D112F089FD002362E0EE
:1059F0000023FB7359E0FA7B1346DB0013449B0042
:105A00002F4A134405337968184608F083FC03468F
:105A1000002B47D0FA7B2A491346DB0013449B0036
:105A20000B4417331B78002B3CD0FA7B24491346D8
:105A3000DB0013449B000B4418331B781A46642385
:105A400003FB02F1FA7B1E481346DB0013449B0064
:105A5000034417331B7891FBF3F37B81BA897B896D
:105A6000D31A322B1EDD3B6801221A70FA7B1449CF
:105A70001346DB0013449B000B441A883B68A3F8D1
:105A80000120FA7B0E491346DB0013449B000B44B4
:105A900004331B789AB23B68A3F8032012F02FFD61
:105AA000012308E0FB7B0133FB73FB7B142BA2D9A2
:105AB00012F025FD002318461037BD4680BD00BFFB
:105AC000C451002080B584B000AF786012F023FD8F
:105AD0000023FB7336E0FA7B1F491346DB001344B7
